{
  "transactions": [
    {
      "hash": "0x3e095fe3eecc9c7b55fb06afadcfcea0ad7d7d2dc0a867b44cc8069b248990c7",
      "transactionType": "CALL",
      "contractName": null,
      "contractAddress": "0xae11ef2c367644ba662c7662237fc0349a7e4211",
      "function": "mint(address,uint256)",
      "arguments": [
        "0xE712ABcF226767E24D1243f434aB1638652ac857",
        "100000000000000000000000"
      ],
      "transaction": {
        "from": "0xe712abcf226767e24d1243f434ab1638652ac857",
        "to": "0xae11ef2c367644ba662c7662237fc0349a7e4211",
        "gas": "0xce46",
        "value": "0x0",
        "input": "0x40c10f19000000000000000000000000e712abcf226767e24d1243f434ab1638652ac85700000000000000000000000000000000000000000000152d02c7e14af6800000",
        "nonce": "0x1a1",
        "chainId": "0xaa36a7"
      },
      "additionalContracts": [],
      "isFixedGasLimit": false
    }
  ],
  "receipts": [
    {
      "status": "0x1",
      "cumulativeGasUsed": "0xd34043",
      "logs": [
        {
          "address": "0xae11ef2c367644ba662c7662237fc0349a7e4211",
          "topics": [
            "0xddf252ad1be2c89b69c2b068fc378daa952ba7f163c4a11628f55a4df523b3ef",
            "0x0000000000000000000000000000000000000000000000000000000000000000",
            "0x000000000000000000000000e712abcf226767e24d1243f434ab1638652ac857"
          ],
          "data": "0x00000000000000000000000000000000000000000000152d02c7e14af6800000",
          "blockHash": "0x89776a795b2faf3b09ca548a146cd3b6963797c90de48b9add32c161b2e97a44",
          "blockNumber": "0x982309",
          "blockTimestamp": "0x6958e138",
          "transactionHash": "0x3e095fe3eecc9c7b55fb06afadcfcea0ad7d7d2dc0a867b44cc8069b248990c7",
          "transactionIndex": "0x77",
          "logIndex": "0xae",
          "removed": false
        },
        {
          "address": "0xae11ef2c367644ba662c7662237fc0349a7e4211",
          "topics": [
            "0x3f2c9d57c068687834f0de942a9babb9e5acab57d516d3480a3c16ee165a4273",
            "0x000000000000000000000000e712abcf226767e24d1243f434ab1638652ac857"
          ],
          "data": "0x00000000000000000000000000000000000000000000152d02c7e14af6800000",
          "blockHash": "0x89776a795b2faf3b09ca548a146cd3b6963797c90de48b9add32c161b2e97a44",
          "blockNumber": "0x982309",
          "blockTimestamp": "0x6958e138",
          "transactionHash": "0x3e095fe3eecc9c7b55fb06afadcfcea0ad7d7d2dc0a867b44cc8069b248990c7",
          "transactionIndex": "0x77",
          "logIndex": "0xaf",
          "removed": false
        }
      ],
      "logsBloom": "0x00000000000000000000000000000000000000000000000000000000000000000000000000000000000000000000000000400000000000000080000000000000001000000000000000000008000000000000000200000000000000000000000000000000020000000000040000000800000000000000000000000010000000000000000000000000000000000000000100000000000000000000000000000000000000000000000000000000000000000000000000000000000000000000000000000002000000000040000000000000000000000000000000000800000020000000000000000000000000000000000000000000004000000000000000000000",
      "type": "0x2",
      "transactionHash": "0x3e095fe3eecc9c7b55fb06afadcfcea0ad7d7d2dc0a867b44cc8069b248990c7",
      "transactionIndex": "0x77",
      "blockHash": "0x89776a795b2faf3b09ca548a146cd3b6963797c90de48b9add32c161b2e97a44",
      "blockNumber": "0x982309",
      "gasUsed": "0x9557",
      "effectiveGasPrice": "0xf4248",
      "from": "0xe712abcf226767e24d1243f434ab1638652ac857",
      "to": "0xae11ef2c367644ba662c7662237fc0349a7e4211",
      "contractAddress": null
    }
  ],
  "libraries": [],
  "pending": [],
  "returns": {},
  "timestamp": 1767432505937,
  "chain": 11155111,
  "commit": "0b9687f"
}